:020000040800F2
:10000000180D0020D50000083B1200083912000826
:1000100000000000000000000000000000000000E0
:10002000000000000000000000000000771200083F
:10003000000000000000000075120008791200089E
:10004000E7000008E7000008E7000008E7000008F4
:10005000E7000008E7000008E7000008E7000008E4
:1000600000000000E7000008E700000800000000B2
:10007000E7000008E7000008E700000800000000B3
:10008000E7000008E700000800000000E7000008A3
:1000900000000000E7000008E7000008E700000893
:1000A00000000000E7000008E7000008C91300088E
:1000B000E700000800000000E70000080000000062
:1000C0000348854600F002FB00480047F10600089F
:1000D000180D00200448804704480047FEE7FEE76B
:1000E000FEE7FEE7FEE7FEE781120008C100000818
:1000F000F0B507460846584087B0C00F0490480046
:100100000E46590040084908BC1A884105D23846B5
:1001100031461E4617460B4602465800400810431B
:100120004CD0300D039040055900400D490D05900D
:10013000401A0290402872DA18030121000B0905C9
:100140000843019004980092002805D0019952427A
:100150000020884100920190029840210A1A0199DA
:10016000009800F020FA05460C466B4607CB00F0DD
:100170003BFAC0197141039A0E0D0023D717564060
:100180001A467A40164344D0049A002A2DD0029A87
:10019000012A039A15DC1205C01A91410126360581
:1001A000001C7141D20F059ED20700930192029666
:1001B0002A46234600F038FA07B0F0BD38463146EB
:1001C000FAE71605224A0F46B218C01AB7410121B4
:1001D0000905001C4F4100187F411146181879414C
:1001E000E20F10436D19644113E0E2076D081543F7
:1001F0006408C2071443039A01261205C01A9141EC
:100200003605001C7141CE07400830434908C0182C
:1002100051412A46234600F0FAF9CDE7FFE704985A
:1002200001224000C117121A00238B410498314665
:10023000C417381AA141EEE730B40124E407634043
:1002400030BC55E730B40124E407614030BC4FE7CF
:100250000000E0FFF0B51FB488B00B9909980024A6
:1002600048400999C00F490049080991C0070B99F6
:100270000090490049080B9109990898A64608433F
:100280001CD00B990A98084318D009980124400003
:10029000420D4800410D099824050003000B20433E
:1002A00009900B980003000B20430B9050181C4939
:1002B0004018002201901446104605E00020014637
:1002C0000DB0F0BD032801DA034600E003239C468D
:1002D000C11A0AAE0AE05F0008ADED5B4F00F75BA4
:1002E0007D430027AA187C41491C5B1E6145F2DD55
:1002F000410004AB5A522104120C0A43240C401C46
:100300000828DFDB01980290009970460191009067
:10031000059B049A0799069800F086F9D0E700003B
:100320000DFCFFFFF0B50C465C4085B0E40FE40720
:1003300003944C000026640859009446490802467C
:100340000296224321D062460A431ED06200570D16
:100350004A000E032303550D012402462C492405AF
:10036000781B1B0B360B4018234326436146009035
:100370001C46501AB44103D30098401C009002E080
:10038000921800985B41002803DA0020014605B06E
:10039000F0BD0020012109050746864611E06446AC
:1003A0001D46141BB54106D36546521BB341744626
:1003B00007430C43A646CD07400849082843921836
:1003C0005B4105460D43EAD11046184313D0604601
:1003D000194650407140084306D06046101AB34198
:1003E00006D20122002306E000220123DB0702E0FF
:1003F0000122D2435310009874460105381C614114
:10040000029C039D0019694100F001F9BFE700005B
:10041000FD03000010B5002904DB0C460121C907CB
:100420004042A141002B04DB1C460123DB07524262
:10043000A341801A994101D3012010BD002010BDB5
:1004400010B5002904DB0C460121C9074042A14137
:10045000002B04DB1C460123DB075242A341101A88
:100460008B4101D2012010BD002010BD10B5002924
:1004700004DB0C460121C9074042A141002B04DBEB
:100480001C460123DB075242A341101A8B4101D3C2
:10049000012010BD002010BD10B5002904DB0C4662
:1004A0000121C9074042A141002B04DB1C46012366
:1004B000DB075242A34142404B401A4301D0002087
:1004C00010BD012010BD00000EB5054902910021AC
:1004D00000910A460B46019100F0A6F803B000BD5A
:1004E0003304000070B5CD0F4A0009030123090B46
:1004F0001B0519430B4BED070024520D9A4201DAFC
:10050000002070BD074B34339A4203DC9A1A00F086
:100510005AF802E00449511888402C43F1D0404277
:1005200070BD0000FF030000CDFBFFFF4A00090380
:100530000123090B1B051943094B10B5520D9A42B3
:1005400001DA002010BD064B34339A4203DC9A1ABC
:1005500000F039F810BD03495118884010BD000063
:10056000FF030000CDFBFFFF70B50446002903D058
:1005700000202022012310E0002801D00020C043E9
:10058000C046C0460DE02546D5408D4205D30D46F8
:100590009540641B1D46954040191546521E002D7E
:1005A000F1DC214670BD10B5202A04DB0146203A5B
:1005B0009140002010BD914020239C1A0346E34047
:1005C0001943904010BD10B5202A04DB0846203A9C
:1005D000D040002110BD0B46D340D0402024A21AA9
:1005E00091400843194610BD10B5202A06DBCB17F1
:1005F0000846203A1041C1170B4306E00B46134151
:10060000D0402024A21A91400843194610BD10B5CD
:10061000002B08DA0024401C614192185B411A4308
:1006200001D14008400010BDF0B51FB482B00546AE
:100630000C0003D0084602F059FC02E002F056FC20
:1006400020300246009021462846FFF7ACFF049B6D
:10065000059A04460F4618431143084314D0184620
:1006600010431BD0009840210A1A18460599FFF73D
:10067000AAFF05460E46009A05990498FFF793FFD6
:10068000084305D0012004E02046394607B0F0BDFC
:100690000020C11705430E432C43374300990E98A1
:1006A0006305401A7905E40A00220C43FD0A0A306A
:1006B00002D500200146E9E70105101969410C9CAB
:1006C0000D9D00196941FFF7A2FFDFE7064C0125E8
:1006D000064E05E0E36807CC2B430C3C98471034EA
:1006E000B442F7D3FFF7F0FC2C3500084C35000876
:1006F00080B500200849C02805D00122D2068258C2
:100700000A50001DF7E7012040070449086001F086
:100710005BFE002080BDC0460000002008ED00E028
:1007200010B507490022074B0C240B6048608A6013
:10073000CA600A614C618A61084600F07FFC10BD06
:10074000E800002000380140F0B588B0039150491E
:10075000884201D0022100E0012105221207002376
:10076000059090420793009300D0009107980646A9
:100770000746039A15682946C14000D186E0012347
:100780001C4606908440254078D00497029657680E
:1007900010213943122911D110461C21049A11400D
:1007A0000F268E40069AD708BF00059AD7193A6AD5
:1007B000B24306698E4016433E62476803223946BB
:1007C00011400798814001928240059E3068904315
:1007D00008433060D143122F13D8BB402F48034247
:1007E0000FD0059B98680840039AD268079EB240D4
:1007F00002439A603809069A90405A68A24302431D
:100800005A60059BD8680840039A9168079CA140EC
:100810000143D960F8001F4C029E049F2ED518207A
:1008200030400F218140069A019B9A43A218136E13
:100830008B430099814019431166039A1648016859
:100840005368D80301D5294300E0A9431248016049
:100850004168980301D5294300E0A9430E4841604F
:100860002168D80201D5294300E0A94321606168CD
:10087000980201D5294300E0A94361600798801CD4
:10088000079008363F1D0698401C73E708B0F0BD7E
:1008900000040050001802408018024006000600C4
:1008A000054800687047C0461A48406802490A680F
:1008B000101808607047C0461009002080B503205A
:1008C00000F008F8002801D0012080BD00F024F8D5
:1008D000002080BD70B50F4E71680124002916D02C
:1008E00005467D20C000FFF73FFE01467F480068B7
:1008F000FFF73AFE00F088FB032D08D8002806D148
:100900000024E0432946224600F026F835602046C0
:1009100070BDC046C400002082B009484168012271
:10092000114341604168114001910199110702682A
:100930000A430260006808400090009802B07047C7
:100940003C1002401F2101400120884001490860FD
:100950007047C04600E100E080B500F06FFC80BD4C
:10096000FEB500284AD00D46029055480068012186
:1009700001910840A84214D2514908680126B043A9
:10098000284308604F4CFFF78BFF07464C48006830
:100990003040A84205D0FFF783FFC01BA042F5D925
:1009A0008BE0029C20688107514B0DD5410704D58F
:1009B000072109031A680A431A600F2109021A68FD
:1009C0008A43A16811431960C00719D13C480168E6
:1009D00001200140A9422AD9394A11688143116096
:1009E000384CFFF75DFF054635480068C0071ED04C
:1009F000FFF756FF401BA042F6D95EE00120FEBD86
:100A00006668042E3CD8B10001A251588F46C046FA
:100A1000250A00086D0A0008770A0008810A000804
:100A2000850A000819460839096849052CE0029A28
:100A30001078400707D5072000032D4B1968814324
:100A4000D0680843186000F057F8294909688909F7
:100A50003C220A401C4989581F220A40D0402349A1
:100A600008601A480068FFF735FF0FE0194608399B
:100A70000968890308E0194608390968890103E013
:100A8000996D00E0596D8907019800D4FEBD196881
:100A900007229143314319600A4FFFF701FF0646D1
:100AA00013480068382101406068C00081428DD041
:100AB000FFF7F6FE801BB842F2D90320FEBDC04608
:100AC0000020024088130000FC2F0008C400002012
:100AD0000648006806490968890A1C220A40054937
:100AE00089581F220A40D0407047C046CC000020E1
:100AF000081002403C3000081C4988688006400FFE
:100B000006D088683822104008280FD1184870474E
:100B10000A6848680004400F042800D900208000BB
:100B2000154908589104490FC8407047886810401B
:100B300010280DD1C868C00716D148680004400FBE
:100B4000042800D9002080000B4908584000704755
:100B50008B6813400120C003202B04D0896811400A
:100B6000182900D00020704702487047001002404A
:100B700000366E01006CDC02E82F0008F0B587B08B
:100B80000125002800D1BEE1049505900078C0073A
:100B9000F34B13D0996838200840D96801251028F4
:100BA00001D1294002D1082800D092E018688003C2
:100BB00004D505984068002800D1A4E10598007884
:100BC000800716D40598007800075CD4059A107841
:100BD000400700D484E1986838210140202900D0E2
:100BE000B8E0D86D800700D47AE1D068002856D0EC
:100BF00076E1986838270740D8680125102F01D181
:100C0000284022D0002F20D01868059A5169002969
:100C100000D1F8E00721C9028843916901431960B6
:100C20002802196801431960AC02FFF739FEED4B49
:100C300006461868204200D013E1FFF731FEE94B69
:100C4000801B03250228F4D95DE118684005059A48
:100C500003D55069002800D155E1AC02E248401CA0
:100C600059680140D06908435860FFF719FE0646ED
:100C7000DC4A106820424CD1FFF712FE801B02288C
:100C8000F6D903253FE1986838210140182908D199
:100C9000186E80079AD50598006A002896D1049DA1
:100CA00031E1186E0599096A002900D198E0012107
:100CB00008431866FFF7F4FDCA4B0646186E800716
:100CC00084D4FFF7EDFDC74B801B03250228F5D91F
:100CD00019E105994868002800D1A8E08968002931
:100CE00000D110E11A690C239A43BE4B0A431A61E2
:100CF00005210904884200D159E1012211048842EA
:100D000000D15AE118688843186091041868884334
:100D100055E1002F15D10720C002116881430598C5
:100D2000806908431060FFF7E7FEAE4989688909CA
:100D30003C220A40AD4989581F220A40D040AC49A4
:100D40000860AC480068FFF7C5FDA64B002800D03E
:100D5000D9E037E7012003900107D86B08400290E3
:100D600006D1D86B0843D863D86B08400690069824
:100D70000191A14F3868C00513D403980402386864
:100D800020433860FFF78CFD964B064638682042BA
:100D900007D1FFF785FD934B801B03250228F5D96A
:100DA000B1E00599C868002864D009698A03920FE8
:100DB00001D10399490403252A048A4B1B699343F3
:100DC0000B4388490B61874A05286BD001286DD0F9
:100DD000D06D03998843D065D06D0421884368E0C5
:100DE000012188431866FFF75BFD7E4B0646186EAF
:100DF000800700D4EAE6FFF753FD7A4B801B0325FA
:100E00000228F4D97FE0290288431860AC02FFF77A
:100E100047FD744B06461868204200D1D2E6FFF722
:100E20003FFD704B801B03250228F4D96BE00120A5
:100E300001041A688A431A6081041A688A431A6096
:100E40004404FFF72DFD674B06461868204200D189
:100E5000B4E6FFF725FD634B801B0325C828F4D9B2
:100E600051E06148401C596801400598C069084339
:100E70005860A7E6D86D03998843D865D86D0421DA
:100E80008843D8655D4CFFF70BFD564B0646D86D81
:100E900080071DD5FFF704FD524B801B0325A042A0
:100EA000F5D930E0D06D04210143D165D06D0399AF
:100EB0000843D065514CFFF7F3FC0646494BD86D0B
:100EC000800705D4FFF7ECFC801BA042F6D91AE09E
:100ED00002980028059A03D1D86B01998843D863FA
:100EE000506A00280ED0996838220A40102A0DD185
:100EF0000128049D07D0D868012528400599896AF2
:100F0000884200D10025284607B0F0BD0122140612
:100F10001968A1431960570602280FD10492FFF700
:100F2000BFFC304B0646186838421BD0FFF7B8FCB0
:100F30002C4B801B03250228F5D9E4E7D8689043A1
:100F4000D860FFF7ADFC2749044608683842D9D07D
:100F5000FFF7A6FC2349001B03250228F5D9D2E799
:100F6000001002400598806A002809D15968C90A12
:100F70001C220A4022498958224A914200D28EE618
:100F8000D968049A91430143D960186820431860D6
:100F9000FFF786FC1349044608683842B2D1FFF7D0
:100FA0007FFC1049001B03250228F5D9ABE701207F
:100FB00081041A680A431A6001041868084318601B
:100FC00001204404FFF76CFC064B064618682042DB
:100FD00000D0F3E5FFF764FC024B801B0325C82813
:100FE000F4D990E700100240FFFFFEFFFC2F00083D
:100FF000CC000020C40000200070004088130000D6
:101000005C3000080024F400401E010E01D00120D5
:1010100070470749074A5060074803680B4003219F
:1010200089075918016000209060072111607047FE
:10103000FFFFFF0010E000E020ED00E0F8B5002821
:101040003CD00446054644356878002804D1002089
:101050002870204600F034F82420687001277E03B1
:101060002068C168B143C160204600F021F9206AC0
:10107000002811D040060FD53903206842698A4301
:10108000636A1A4342618B4206D1032149034269D4
:101090008A43A16A11434161F80221680A698243C7
:1010A0000A614869082290434861C8683043C860B3
:1010B0000020A06420216970A970F8BD0120F8BD4E
:1010C000F0B585B000682349884241D122480168C3
:1010D00002263143016001683140009100990168A6
:1010E0003143016001683140009100990124A1035E
:1010F000C2680A43C260C06808400090009800259A
:1011000004950396029401964020009013486F4680
:101110003946FFF719FB0495039602940196802047
:1011200000900E483946FFF70FFBAC480068C168D5
:1011300020220A43C260C16810220A43C2601B26F3
:10114000304629462246FFF707FC3046FFF7FAFBF8
:1011500005B0F0BD003801403410024000040050DA
:10116000F0B585B004930F460546044644346078D4
:101170000221202828D10120002F26D01646002A3F
:1011800023D001221303A868984204D128690028BB
:1011900001D1F8071BD120780128084615D000207E
:1011A0000290A8642270212060700193FFF778FB01
:1011B00003906E862E86A8680199884202D128691C
:1011C000002806D03E4606E0084605B0F0BD1046B1
:1011D000FBE700260297174F688E00281AD080215F
:1011E0002846039A049B00F0C5F800281AD1002E67
:1011F00004D0307829684860761C07E0029A10888D
:10120000384029684860921C02920026688E401E71
:101210006886E1E740212846039A049B00F0AAF87B
:10122000002801D00320D0E7002020702021617029
:10123000CBE7C046FF010000FEE77047002805D459
:10124000032203469343094A9A1803E00C22024002
:10125000074BD2188007C00E8901C9B28140FF2315
:1012600083401068984308431060704700E400E032
:1012700014ED00E07047704780B5FFF715FB80BDA7
:1012800007480168074A0A400749096811430122D3
:1012900053030B430360D006044908607047C046FF
:1012A000041002400000FFFF040FFF1F08ED00E0E4
:1012B000F8B5044601214A03006803699343E268D4
:1012C0001A4302612269C368274D1D40A368134376
:1012D00062691A432A43C260CD024169A943E669A3
:1012E000314341610321090242698A43A1691143E3
:1012F0004161FFF7EDFB0146192048436168AE42AA
:1013000016D14900FFF730F9064664273946FFF742
:101310002BF90546164868438019C000323039461B
:10132000FFF722F90721014040001F22120113E0BC
:101330008900FFF719F9064664273946FFF714F9C3
:1013400005460A4868438019000132303946FFF7E4
:101350000BF90F210140F02202402801101840181B
:1013600021688860F8BDC046F3E9FFFF9CFFFF0FCE
:101370009CFFFF1FF8B51C4615460F460646443035
:101380000090306801683940B9421AD0611CF8D029
:10139000002C05D0FFF784FA401BA042F1D9306839
:1013A000009B0D214901C2688A43C2604169012244
:1013B00091434161202058700021197098700320DA
:1013C000F8BD0020F8BD00000448006801688906E7
:1013D00002D54168C9B241607047C046E8000020AC
:1013E000FEB504460788380622D40D46072038404B
:1013F00079060A0F1121514301281DD000283E46CD
:1014000024D10220285E029000202A5E6B69A86920
:101410002E8F0196222900D8222100911946029B85
:1014200000F0D6F80646E88F00280FD1EE870DE0D1
:101430007F2007403E4615E02A8F2846283000F0DE
:10144000B9F80646A88F002800D1AE87298F30460C
:1014500000F078FB28877F2006408743B819802159
:10146000014321803046FEBD0020704770B5144610
:101470000D461146FFF7B4FF064628462146FFF702
:10148000AFFFB1B280B2081A70BD002A03D1427812
:1014900002704A780A700222895E805E401A7047A4
:1014A000F0B587B00E460421415E03910090446A76
:1014B00006A846800025019604950595029528B258
:1014C0000399884231DAE8B206A90880204600F084
:1014D0009DF90746204600F097FA0446002F11D0E8
:1014E000396878680088420A024001201040049A56
:1014F000521C049200290DD00A683A6022680A60E2
:10150000216007E00298401C029020684068008833
:10151000C005C00F31B2002902D4761C06A94E8046
:101520000599411805916D1CC9E70498850001983B
:10153000012805DB1E492046009A00F0FDF904460B
:1015400002982D1A206800F054FA064606A9204693
:1015500000F05CF90746002800D1276805982D188F
:10156000002F08D060680021405EA9B200F0E5FAC3
:1015700005463F68F4E7706821684A6872600A6847
:1015800032600E604860EB4900262046324600F08B
:10159000D3F9044607463F68002F06D06068805F95
:1015A000A9B200F0CAFA0546F5E7A8B207B0F0BD47
:1015B0006D1400087CB514460568061D4CCE0091DC
:1015C0002846314601F0F0FA214600F0B6FA7CBD1B
:1015D000F0B593B0019300920D46064602910020AB
:1015E000199C189F202806D00BA900220A5003A995
:1015F0000A50001DF6E72846007800280AD002A805
:1016000003A900F00BFA80000BA90A58521C0A50DB
:101610000298F1E7AE190098C0B22946B14206D24D
:101620000A782C2A01D042400A70C919F6E70295BF
:101630002846007800280AD002A803A900F0EEF995
:1016400080000BA90A58521C0A500298F1E7019831
:10165000C0B2B54206D229782C2901D04140297068
:10166000ED19F6E70025202D0CD00BA84059A1B2AA
:1016700000F072FA014603A8405900F06DFA0446E2
:101680002D1DF0E7A0B213B0F0BD0000F0B58BB097
:10169000049306920791024601200990C643731CE9
:1016A0000A93002402250827089694420BD2AD190C
:1016B0000A9B9C1C7C430837361D0899891C08919D
:1016C0005B1C0A93F1E706980028099C00D00446A9
:1016D0000798411E0322029291430A1D57190A9945
:1016E0004943490000915118019100230392079248
:1016F0000A99994225D00593099846000022069739
:101700000799099885180A9B934210D06C43E317F8
:101710001B0CE31813480340E41A2B193B803319C0
:10172000DBB20B80BF1C891CB61C521CE9E7089871
:10173000069F3F18079909180791059B5B1C09959F
:10174000D6E7019C00982018401E02998843021D8C
:1017500004990A980860039B4B608C60CA600BB0C8
:10176000F0BDC0460000FFFFFEB50090401E029095
:10177000002420462646019223185F1C029B9F42AC
:101780001CD200280ED0121914460546002D05D093
:1017900033782370641C761C6D1EF7E72C231354DA
:1017A0003C46019A491C48080C2505404807C00ED4
:1017B00006A31B585E590DA31858DDE700998C420B
:1017C00003D200201055641CF9E7FEBD9C300008D0
:1017D0009C3000089C3000088C3000088C300008D9
:1017E000C0300008C03000087C3000080400000051
:1017F00004000000040000000800000008000000D1
:1018000008000000080000000800000002228A5EB4
:10181000002A0ED400280ED091B243685B888B4218
:101820000AD00068F6E70A8843681B78934203D021
:1018300000680028F7D1002070470000F0B587B09D
:1018400005920C4605461421FEF78EFE831E2046A7
:10185000D900354F3A46813262520026611826601F
:1018600061604E809A0004920A1D06920834642D2D
:1018700003900CD3046000258560069AC2605780EF
:101880002A4D1580121D06921030274601E037467A
:101890002046049C0D19029301910095B34225D076
:1018A000044608348C421FD2069A121D0492AA42A2
:1018B0001AD20723334005460698324605994A4016
:1018C0001207520ED218FF230233534316492F60DA
:1018D000686041800380029B03990D6001992F4647
:1018E000009D049806902046761CD7E705211846EF
:1018F000FEF73AFE02210E4A3B68002B0DD04C1E2B
:10190000844205D3059E744014404E07760D34433F
:101910007D686C80491C1F46EEE70649002203984B
:1019200000F00AF807B0F0BDFF7F0000FFFF0000E5
:10193000FF3F00008B140008F0B587B005920491BA
:101940000546012003900020064602900146002D26
:1019500044D0491C019100242F460398844204DAA4
:101960003F68641C002FF8D10027039B002C05DC86
:10197000012B30DB002F2ED0002C1ED0002B10D0DE
:10198000002F0ED006961E4679686868059A049B5B
:10199000984700280ADD3346731E386829463A46C0
:1019A00009E0641E296838462A460BE0641E29684F
:1019B00038462A463346069E04E05B1E38680024FB
:1019C00029463A46002E04D032600D460746164698
:1019D000CCE70292F9E73D460199B8E70020306074
:1019E000039840000390012902980546ABD807B040
:1019F000F0BD06C84B68083843600B6803600020E0
:101A000005C108390846704701460020002904D066
:101A10000A68086008461146F8E7704770B5026822
:101A200000231478002C00D184E0DDB2012D00D118
:101A300080E02C2C00D17CE0072D00D977E0C04657
:101A40007D442D796D00AF44037212323B411E2755
:101A50000A23DB4325463A3D9D4240D802232B2CE6
:101A600062D02D2C60D02E2C5AD105235CE00923A6
:101A7000DB4325463A3D9D4233D28B685B1C8B602D
:101A80002E2C49D14AE08B695B1C8B610923DB4317
:101A90003A3C9C4209D23FE00A23DB433A3C9C4259
:101AA00003D84B685B1C4B6036E007233FE02D2CCE
:101AB00001D02B2C24D1CB685B1CCB60062336E0F5
:101AC0002E2C12D10B695B1C0B6127E020232343D2
:101AD000652B19D14B695B1C4B61032327E0042361
:101AE00022E08B685B1C8B6008E00A23DB433A3CF6
:101AF0009C4203D80B695B1C0B610DE0042316E0CC
:101B0000CB685B1CCB6007E00A23DB433A3C9C427A
:101B100004D84B695B1C4B61012308E0052306E0F8
:101B20004B685B1C4B6001230C68641C0C60521CEE
:101B300077E7521C0260D8B270BD80B580B200F069
:101B400001F880BD10B50446C0B200F00FF80146A0
:101B5000200A00F00BF810BD10B5044680B2FFF764
:101B6000F1FF0146200CFFF7EDFF10BD10B500227C
:101B7000074B072A09D80C04640C4140C90700D060
:101B80005C402146521C4008F3E788B210BDC046B5
:101B900001A0FFFFF0B58FB0059317460C46054630
:101BA000149E002232601346FEF760FCF9178F4343
:101BB0004E2F00D34E270028039703D10120306019
:101BC000C007444016980490159809900CAA28461E
:101BD000214601F0B1F902900D4600240C9F0D9EA4
:101BE0003846314622462346FEF756FC002843D1AC
:101BF0000195002008900025384631462A462B469C
:101C0000FEF74AFC002821D10024384631462246FE
:101C1000574D2B46FEF786FB0CAA01F08DF9079075
:101C20000691554A554BFEF763FA22462B46FEF7BE
:101C300011FBFEF757FC30300999089BC9184F2259
:101C400088545B1E08930D9E0C9FD4E707980A905A
:101C500006980B90089F7C42059A099B019EAC4216
:101C600006D05819C0195021405C58556D1CF6E734
:101C7000029D3146264625E0029F384629462246E7
:101C80002346FEF7C7FB002818D10124002607973A
:101C90003846089529463246354BFEF7DBFA0746AB
:101CA0000D463246334BFEF7CBFB641E0028EDD1C8
:101CB0000A970B95059A079D089903E029463D462A
:101CC0002646059A14600498002801D0039A01E082
:101CD000039A1219002A0998034644D480180890E0
:101CE000964217DC4F2E15D8144600222846204B6A
:101CF000FEF7B0FA0AAA01F01FF905460F460A9846
:101D00000B99FEF7EFFB224630300999885539468A
:101D1000761CE5E7502A059B1FDA089E3078411DA6
:101D200031703046099C049DC9B23A2919D330213B
:101D30000170A04204D9401E0178491C01700AE0DC
:101D4000312202701A68521C1A60002D03D1A6427B
:101D500000D93170761C0178E6E7099803464F33C5
:101D600001E020463346002119700FB0F0BDC04697
:101D7000000024400000F03FB81E85EB51B89E3FA4
:101D800083B0F0B5FCB081918292839381A90891D0
:101D9000109152A9491C0291012103910902049159
:101DA0000026F143069111AB059651900178252943
:101DB00005D0002900D19BE219705B1CD8E0099383
:101DC000401C00210F460178202909D0232909D081
:101DD0002B2909D0302909D02D290BD1102106E05B
:101DE000082104E0202102E0042100E00121394320
:101DF000401CE7E751900A46303A092A05D851A815
:101E000001F032F8079051980FE02A290BD1401CBD
:101E10005190089904C90891002A02D510210F4356
:101E20005242079201E00699079101782E290CD1C0
:101E3000421C519241780B46303B092B08D851A8DF
:101E400001F012F80446519A0BE00246069C0BE0A2
:101E50002A2905D1821C5192089810C8089000E0E8
:101E6000069CE017844311782025084628436C28F7
:101E700003D1501C5190507801E008460699034662
:101E8000613B172B13D80A227B441B795B009F44CC
:101E90008D18230B184018180B18181818186430D0
:101EA00018187218651818160220074356E02528DE
:101EB00077D0412878D0582803D1402007431022FA
:101EC0004CE02520099B18705B1C5199087800286C
:101ED00068D1481E51904BE0F80600D5E2E0099B1E
:101EE0000799022900DAE0E020201870491E5B1CE7
:101EF000F7E7089802C8089000940798401C4242EF
:101F0000424117430197002800D1DEE00998079B62
:101F1000DDE002213943F80601D503988143079E8D
:101F20000D940F91C80700D030250899C91D0720CE
:101F30008143086808914C680022074621460E92AA
:101F40001346FEF793FA002800D0C2E00120C00734
:101F50004440761E07962D200BE10822089802C8FF
:101F60000890009401970998079B00F07BFE0346B8
:101F70005198401C19E72146089810C80890002C79
:101F800000D1E5A4204600F08FFFF90600D5A9E0B6
:101F9000099B079FB84200DBA7E01D707F1E5B1CFA
:101FA000F8E7099B187008E7402007430898006885
:101FB0000F906C291BD17806D54900D5D549002250
:101FC0001046002A05D0062A56D066AB3A241C5487
:101FD000401C0F9B9B5C1C090C5D66AD2C542C189F
:101FE0000F251D404B5D6370521C801CE9E70022E9
:101FF0001646002A05D0042A49D066A82E2181550C
:10200000761C0F98845C002C12D0642C12D30D9295
:10201000642520462946FEF7A7FABD49095C66AA51
:1020200091554543641B701C0B9002200C9007E0F7
:1020300030201CE00A2C17D30D9201200C900B9637
:102040000A96E0B20A252946FEF78EFAB04B195CD3
:102050000E9166AA0B990E9E56540C990A9E8E19E3
:102060004543641B0D9A00E0A94BE0B2185C66A9D9
:102070008855521C761CBCE7F90646D4099B079C80
:10208000A04245DA20211970641E5B1CF8E7F806AF
:1020900053D4099B079A964252DA20201870521E98
:1020A0005B1CF8E7099B079900E0491E0898006847
:1020B00018705B1C022904DB202018705B1C491E71
:1020C000F8E70898001D089052E7082309981022A5
:1020D0004BE70F99480749D408074CD400200C90CF
:1020E00003984DE0099B079F00E07F1E002181427D
:1020F00003DA625C5A54491CF9E75B18B84200DB0A
:1021000036E71D705B1C7F1EF8E7099B079C00E00B
:10211000641E0899091D08910021814204DA66AA0B
:10212000525C5A54491CF8E75B18A04200DB1FE7D9
:10213000202119705B1C641EF7E7099B079A00E0D9
:10214000521E0898001D08900020B04204DA66A9CB
:10215000095C1954401CF8E71B18964204DA202049
:1021600018705B1C521EF8E7059E01E7761E079665
:102170002B200C9005E0761E079620200C90002066
:102180000E9066A801907AA800900D9E002E00D5B2
:1021900006267BAB38462146324600F0C1F852A9EC
:1021A0007A9A002A344603D052A92D220A70029945
:1021B0000278002A17D07B9B2646012B21DB0023C7
:1021C0000124002C0DD07B9CA34203D12E220A7047
:1021D000C25C491C0A70C21852785B1C491C144628
:1021E000EFE7344624E030200870002C1FD02E2268
:1021F0004A70891C2246002A1AD00870521E491CB7
:10220000F9E72E224A7030220A70891C00245B42B2
:102210009C4203DA0A55641C7B9BF8E70919344693
:102220000278002A04D00A70491C401CF8E7491CB7
:102230000F9800260E7080061CD5002C1AD152ACC7
:102240002078002812D02E2814D0452803D06528E5
:1022500001D0641CF4E72046049900F025FE012813
:1022600006DB2118225C4A70401EF8E700206070EF
:102270002E20207052A8049900F016FE0799091A22
:1022800011220F9B134202D01A460E9C0BE00E9CAB
:10229000012906DB2022099B1A70491E5B1C099349
:1022A000F6E7491E0F9A002C01D0099B03E0099B19
:1022B0000C9C1C705B1CD20606D4012903DB1D702C
:1022C000491E5B1CF9E7491E089A083208928642AB
:1022D00004DA52AA925D9A55761CF8E79B19059E7E
:1022E000012900DA44E6202018705B1C491EF7E73C
:1022F0001E7011A8805D002803D000F0E9FD761C57
:10230000F7E730467CB0F0BC02BC03B00847C046DB
:1023100004350008DF3400083C4E554C4C3E0000AC
:10232000BFB500240294099C0194089D0095FFF715
:1023300031FC204604B0B0BDE0B50190034801A9CE
:1023400001221623FEF70CFF01988CBDE800002047
:10235000401E042804D8800002A108580068704775
:10236000002070473401002038010020D4000020F4
:10237000D80000203C010020024801684068401A53
:102380007047C046E000002070B504460025856314
:10239000C563C669AE4215D001212046FFF780F81B
:1023A000218FFFF7CFFB20870020C1432046FFF796
:1023B00077F8218FFFF7C6FB2087002D00D16087BB
:1023C0006D1CE7E7002070BD90B0FEF777FA00249F
:1023D00009940B94012001020A910F2105910D949B
:1023E0000C21079106940F9402250E95089411492B
:1023F0000968114A0A40800310180C9005A8FEF7DE
:10240000BDFB002800D0FEE704940394029507204A
:10241000019001A80121FEF7A3FA002800D0FEE7F1
:10242000E1204002FEF77CF904A000F0CDFD00F0B1
:102430000FF8FEE7080FFF1FFF1F0000505933324F
:10244000E5BC80E58F91E69DBF2121210D000000B4
:10245000F0B59FB000261E960CAD284642301EA94E
:102460001DAA079000F0B8FC0120FC4C0490A04786
:10247000288002200B90A047688003200390A0478B
:10248000A88004273846A04713900520A0470028BD
:1024900001D0044600E007241494A88869882A889B
:1024A000002A09D1002907D1002805D10CA96620EE
:1024B000888000210C910A46012A09D1002907D100
:1024C000002805D10CA866218180EB480C90EB4ACE
:1024D00040200CAD2E52EA480E9040353146032E76
:1024E00006D02046F040C00700D0491C761CF6E715
:1024F00009927D20000189B2FEF736F81290002182
:102500000A460A978B000C3303290FD02646CE408B
:10251000F60702D11B1D491CF6E796B24643D84F79
:10252000BE190CAFFE50521C491CEBE7E10706D068
:102530000F99099A12B2FFF781F91590149CA00720
:102540000BD500200CAB185E59880A040243109981
:1025500012982833FFF79AF8149C600706D50020DC
:102560000CA9095E119A1298FFF7FEF8139800283B
:102570002ED10120099013900026C24C374600222C
:10258000304639462346FDF771FF002811D10A2055
:1025900013994143139100F079FC0CA8FFF7F4FE66
:1025A00000F07AFCFFF7E8FE00F088FC06460F46D4
:1025B000E5E730463946FDF7B9FF0028099900D014
:1025C00001460A20FDF7D0FF401C139941431391A7
:1025D00000F05CFC0CAE3046FFF7D6FE00F05CFC71
:1025E000FFF7CAFE08900024305FA74F2146B84786
:1025F00001460B98305EB84701460A98305EB847EE
:1026000001461820305EB847AD498842069010D088
:10261000AC49884211D0AC49884212D0AB498842BB
:1026200014D0AB49884200D023E1B8480594049EF9
:102630000FE0A8A005940A9E0BE0B34805940B9EFA
:1026400007E001200590AF48039E02E08FA00594AB
:102650002646FFF795FB7000AD4909180B91AD496F
:1026600009180A91AC49081809902746BEB2AB4830
:102670000068B04234D9002028801499CA070DD0D0
:10268000099A13880CAA528F9A4207D0A44831465F
:10269000FFF776FB2888401C288014998A070DD5FF
:1026A0000A9A13880CAA928F9A4207D09D48314605
:1026B000FFF766FB2888401C2880149949070CD531
:1026C0000B990B880CA9CA8F9A4206D096483146BE
:1026D000FFF756FB2888401C288004197F1CC5E79B
:1026E0002746089DFEF7C0FE044612998F48904E7B
:1026F000B04790482946B047284600F0DFFB024625
:102700008DA00B46B047284600F0D8FB00221346A8
:10271000FDF780FE002816D18048016813984843D1
:10272000FDF7D2FE05460E46089800F0C7FB0246AC
:102730000B462846089D3146FDF7F4FD02468448C5
:102740000B46FFF71DFB3E19284600F0B7FB00249F
:10275000804B2246FDF78AFE002803D17E48FFF712
:102760000FFB761C6D4F3868139941437B48704DC1
:10277000A8477B487B49A8477B487C49A8477C48B9
:102780007C49A8477C480699A8471498C1070CD0F3
:102790007A4DA1B23868884206D90CA8428F2846E3
:1027A000FFF7EEFA641CF4E7149881070DD50025B5
:1027B000734CA9B23868884206D90CA8828F20468B
:1027C000FFF7DEFA6D1CF4E71498400713D40025D8
:1027D000774CA9B23868884206D90CA8028F2046E7
:1027E000FFF7CEFA6D1CF4E7300411D030B20028A8
:1027F00036DC6A4835E00025624CA9B23868884268
:10280000E5D90CA8C28F2046FFF7BAFA6D1CF4E791
:102810006348FFF7B5FA0598002824D03968139863
:102820004843FDF751FE04460D46089800F046FB6C
:1028300002460B4620462946FDF774FD02464948EC
:1028400000904A48019057480B46FFF799FA5648BE
:102850004849FFF795FA55A003E0C0465123000808
:1028600049A0FFF78DFA079800F0AAFA00201FB0E0
:10287000F0BD124F059434E71534153415340000BB
:10288000400100200000F03F3B1B0008366B207029
:102890006572666F726D616E63652072756E207011
:1028A0006172616D657465727320666F7220636F0B
:1028B00072656D61726B2E0A0D000000FFFF000053
:1028C000F2180000AF4E0000F5E90000028A000097
:1028D000057B0000324B2076616C69646174696F1E
:1028E0006E2072756E20706172616D6574657273B1
:1028F00020666F7220636F72656D61726B2E0A0DB8
:102900000000000019310008743100084731000848
:10291000D0300008B6300008AC300008D0000020ED
:10292000C0330008F03300088F330008E632000897
:10293000811D0008CD320008546F74616C207469E9
:102940006D65202873656373293A2025660A0D009A
:102950005432000800002440DA300008B432000885
:102960009C320008223400086C32000858340008F9
:102970008432000832340008FF3200081B3300089C
:1029800072330008383300084572726F7273206426
:10299000657465637465640A0D000000A631000863
:1029A0000A3200083E340008383400080A0D0000DE
:1029B00055330008F0B54300002484420CD00D4686
:1029C0000646002E05D02F88BF182F80AD1C761E1E
:1029D000F7E7C918641CF0E7F0BDFEB50C464100EE
:1029E00001918100009100260290864211D0174685
:1029F0002146002806D000257D5F5D4320C1BF1C15
:102A0000401EF6E70198121800982418761C0298C8
:102A1000EBE7FEBDF0B588B0009305920391024646
:102A2000440000200292904229D011460190414377
:102A300004910027009B97421BD00498381880000F
:102A4000039908180690002607931046059A002857
:102A500008D00025515F5D5F4D43AE191B19921CD4
:102A6000401EF4E706980660079B9B1C7F1C029A99
:102A7000E1E70598001905900198401CD3E708B0DC
:102A8000F0BDF0B588B00093059203910246440072
:102A90000020029290422DD01146019041430491B2
:102AA0000027009B97421FD0049838188000039994
:102AB00008180690002607931046059A00280CD0A7
:102AC0001588198869430D056D0E8906090F69433C
:102AD0008E191B19921C401EF0E706980660079B92
:102AE0009B1C7F1C029ADDE7059800190590019850
:102AF000401CCFE708B0F0BDF0B585B00393144695
:102B00000291410000910025019085421AD00646AD
:102B1000A8000299081804900027039B224630461B
:102B2000002808D00021565E595E7143CF199B1CC6
:102B3000921C401EF4E704980760009824186D1C4E
:102B40000198E2E705B0F0BDF0B585B004928200CF
:102B5000009200242546224623460190834220D03D
:102B6000029303910F46002814D040CF0023AE42B9
:102B700001DC1D4600E001253119049CA14200DD65
:102B80000A25049CA14200DC0B46AA18401E1C46E4
:102B90003546E8E7039900980918029B5B1C0198E9
:102BA000DCE710B205B0F0BDF0B585B00393144674
:102BB00004920F4605460A9E11463246FFF7FAFE7A
:102BC00028463946224633460296FFF706FF224C36
:102BD0003443224B28463946224698470021204A52
:102BE0009047019028463946049E3246039BFFF7E2
:102BF00083FF284639462246184B98470199184AC0
:102C000090470190284639463246039E3346FFF7E7
:102C100001FF284639462246104B98470199104A31
:102C20009047019028463946049A3346FFF729FF1A
:102C3000284639462246094B98470199084A904749
:102C400006460298404202B228460499FFF7B2FEB7
:102C500030B205B0F0BDC04600F0FFFF492B0008C0
:102C60003B1B0008F0B59BB016460F460446219A60
:102C7000500601D5514800E04F4808900121D00688
:102C800000D58A430791D00701D0302500E02025E8
:102C900000200190900711D5002F06D4500708D4CA
:102CA00010070BD55B1E202005E05B1E7F422D2008
:102CB00001E05B1E2B200190002007902020114690
:102CC00003900140049106D0082E03D0102E02D1AB
:102CD0009B1E00E05B1E059320980290002F069239
:102CE0000996009511D00025002F12D038463146A4
:102CF000FDF73AFC099E31464143791A089A515C26
:102D00000AAA51556D1C0746EEE70AA8302101704A
:102D1000012502988542294600DC01460598401AA3
:102D20001122069B13421A4602D0099E039B08E01B
:102D3000099E039B012803DB2370401E641CF9E7F6
:102D4000401E079F002F02D1019F2770641C049F23
:102D5000002F0ED0102E06D0082E0AD1302222705D
:102D6000069A641C05E07822627030222270069A6E
:102D7000A41CD2060CD4009A012803DB2270401E4A
:102D8000641CF9E7401E03E030222270641C491ED7
:102D90008D42F9DB04E06D1E0AA9695C2170641C98
:102DA000002DF8DC02E02370641C401E0128FADAD2
:102DB00020461BB0F0BDC04604350008DF340008D3
:102DC00080B50021017002A0FEF7DAFF80BDC04689
:102DD000444F4E450A0D000010B50121017008A0B6
:102DE000104CA047104800681049FDF7BDFB014694
:102DF0000FA0A0471648016816A0A04710BDC04606
:102E00002A2A2A2A2A2A2A2A537461727420436F92
:102E100072656D61726B2A2A2A2A2A2A2A2A2A2A8C
:102E20000A0D0000811D0008CC00002040420F0068
:102E300053797374656D206672657175656E63791B
:102E4000203A202564204D487A200A0D0000000019
:102E500000200240464C4153485F4143523A2030E3
:102E60007825580A0D00000010B50268002113787B
:102E7000303B092B08D8531C03600A244C431178BB
:102E8000611830391A46F2E7084610BD80B5FDF7E3
:102E900007FD0449086080BD80B5FDF701FD0149CB
:102EA000486080BDE000002002460020135C002B3B
:102EB00003D0814201D0401CF8E7704780B5FDF790
:102EC00003FB0022014BFDF72DFA80BD00408F402F
:102ED000E0B501A9087003480122034BFEF740F951
:102EE0008CBDC046E8000020FFFF00002021020C3E
:102EF00001D010211046020A01D0104608390209FB
:102F000001D01046091F820801D01046891E4208D0
:102F100001D0881E7047081A704702E008C8121FC7
:102F200008C1002AFAD170477047002001E001C1B2
:102F3000121F002AFBD17047F8B54B00002801D0C2
:102F4000012400E0002401251C436D05EC4202D958
:102F500051601060F8BD1A4C5B0D1C19CB0F002797
:102F6000DB07142C16DA002C02DA17605360F8BD68
:102F7000144D0646E5400C462C40044305D00B4654
:102F8000AB43176053603A4617E01660516019462C
:102F90003846F8BD332C05DC0025ED43143CE540F4
:102FA000284204D15160106019463846F8BD0346E6
:102FB000AB43136051601A460B46FDF73DF9F8BD6F
:102FC00001FCFFFFFFFF0F0010B5044601E0FFF713
:102FD000B3F92078641C03490028F8D10A20FFF7D0
:102FE000ABF910BDC000002000093D0000127A00BE
:102FF0000024F4004086510100366E0100000000FC
:1030000000000000000000000000000000000000C0
:1030100000000000000000000000000001000000AF
:103020000200000003000000040000000600000091
:103030000700000008000000090000000000000078
:10304000000000000000000000000000010000007F
:1030500002000000030000000400000000093D0021
:1030600000127A000024F4004086510100366E01FF
:1030700000093D0000093D0000093D00BB34000887
:10308000CD340008D6340008C43400085F3400088A
:10309000713400087A340008683400089534000858
:1030A000B1340008B63400089A340008B0D4403374
:1030B000796A14E7C1E352BE99110856D71F470732
:1030C000A8340008833400089F3400088C340008BA
:1030D000475EBF39A4E53A8E848D4552524F522146
:1030E000204D757374206578656375746520666F0F
:1030F00072206174206C65617374203130207365B7
:10310000637320666F7220612076616C696420723F
:103110006573756C74210A0D00324B207065726600
:103120006F726D616E63652072756E207061726181
:103130006D657465727320666F7220636F72656D62
:1031400061726B2E0A0D00366B2076616C696461CA
:1031500074696F6E2072756E20706172616D657436
:1031600065727320666F7220636F72656D61726B3A
:103170002E0A0D0050726F66696C652067656E657A
:10318000726174696F6E2072756E20706172616D0C
:10319000657465727320666F7220636F72656D610E
:1031A000726B2E0A0D0043616E6E6F742076616C37
:1031B0006964617465206F7065726174696F6E20F7
:1031C000666F722074686573652073656564207628
:1031D000616C7565732C20706C6561736520636F1D
:1031E0006D70617265207769746820726573756CA3
:1031F0007473206F6E2061206B6E6F776E20706C21
:103200006174666F726D2E0A0D00436F7272656392
:1032100074206F7065726174696F6E2076616C697D
:1032200064617465642E2053656520524541444DA8
:10323000452E6D6420666F722072756E20616E641B
:10324000207265706F7274696E672072756C657339
:103250002E0A0D00497465726174696F6E732F5385
:1032600065632020203A2025660A0D00436F6D70AB
:10327000696C657220666C6167732020203A202596
:10328000730A0D004D656D6F7279206C6F63617408
:10329000696F6E20203A2025730A0D00436F6D7010
:1032A000696C65722076657273696F6E203A2025AD
:1032B000730A0D00497465726174696F6E73202022
:1032C00020202020203A20256C750A0D00546F74B0
:1032D000616C207469636B732020202020203A20C9
:1032E000256C750A0D00436F72654D61726B20533A
:1032F000697A65202020203A20256C750A0D00731C
:103300006565646372632020202020202020202017
:103310003A203078253034780A0D005B25645D63EF
:1033200072636C697374202020202020203A2030A2
:1033300078253034780A0D005B25645D6372637311
:10334000746174652020202020203A2030782530B8
:1033500034780A0D005B25645D63726366696E6193
:103360006C2020202020203A203078253034780A24
:103370000D005B25645D6372636D61747269782012
:10338000202020203A203078253034780A0D005B48
:1033900025755D4552524F5221207374617465202A
:1033A00063726320307825303478202D2073686F65
:1033B000756C64206265203078253034780A0D0001
:1033C0005B25755D4552524F5221206C6973742004
:1033D00063726320307825303478202D2073686F35
:1033E000756C64206265203078253034780A0D00D1
:1033F0005B25755D4552524F5221206D6174726993
:10340000782063726320307825303478202D207343
:10341000686F756C64206265203078253034780AD6
:103420000D0041726D436C616E672031362E302E77
:103430003000535441434B00202F20257300436F2D
:1034400072654D61726B20312E30203A2025662046
:103450002F202573202573002D4F66617374003370
:10346000352E3534343030002B302E363434303075
:10347000002E31323334353030002D3131302E379B
:103480003030002D2E313233652D32002B302E3668
:10349000652D31320035303132002B313232002D82
:1034A0003837652B38333200352E353030652B33C5
:1034B0000031323334002D3837340054302E336528
:1034C0002D31460033342E30652D545E002D542EA0
:1034D000542B2B5471003154332E3465347A003020
:1034E0003132333435363738394142434445464723
:1034F00048494A4B4C4D4E4F5051525354555657D4
:1035000058595A00303132333435363738396162E0
:10351000636465666768696A6B6C6D6E6F70717203
:10352000737475767778797A00000000503500085A
:1035300000000020E00000001A2F000830360008CC
:10354000E0000020380C00002A2F000800000000D6
:10355000000000000000000000000000000000006B
:10356000000000000000000000000000000000005B
:10357000000000000000000000000000000000004B
:10358000000000000000000000000000000000003B
:10359000000000000000000000000000000000002B
:1035A000000000000000000000000000000000001B
:1035B000000000000000000000000000000000000B
:1035C00000000000000000000000000000000000FB
:1035D00000000000000000000000000000000000EB
:1035E00000000000000000000000000000000000DB
:1035F00000000000000000000000000000000000CB
:1036000000000000000000000000000000000000BA
:1036100000000000040000000100000000366E0100
:103620000100000066000000E80300000000000048
:04000005080000C12E
:00000001FF
